{
  "_format": "hh-sol-artifact-1",
  "contractName": "EthMerk721",
  "sourceName": "contracts/EthMerk721.sol",
  "abi": [
    {
      "inputs": [],
      "stateMutability": "payable",
      "type": "constructor"
    },
    {
      "anonymous": false,
      "inputs": [
        {
          "indexed": true,
          "internalType": "address",
          "name": "owner",
          "type": "address"
        },
        {
          "indexed": true,
          "internalType": "address",
          "name": "spender",
          "type": "address"
        },
        {
          "indexed": true,
          "internalType": "uint256",
          "name": "id",
          "type": "uint256"
        }
      ],
      "name": "Approval",
      "type": "event"
    },
    {
      "anonymous": false,
      "inputs": [
        {
          "indexed": true,
          "internalType": "address",
          "name": "owner",
          "type": "address"
        },
        {
          "indexed": true,
          "internalType": "address",
          "name": "operator",
          "type": "address"
        },
        {
          "indexed": false,
          "internalType": "bool",
          "name": "approved",
          "type": "bool"
        }
      ],
      "name": "ApprovalForAll",
      "type": "event"
    },
    {
      "anonymous": false,
      "inputs": [
        {
          "indexed": true,
          "internalType": "address",
          "name": "previousOwner",
          "type": "address"
        },
        {
          "indexed": true,
          "internalType": "address",
          "name": "newOwner",
          "type": "address"
        }
      ],
      "name": "OwnershipTransferred",
      "type": "event"
    },
    {
      "anonymous": false,
      "inputs": [
        {
          "indexed": true,
          "internalType": "address",
          "name": "from",
          "type": "address"
        },
        {
          "indexed": true,
          "internalType": "address",
          "name": "to",
          "type": "address"
        },
        {
          "indexed": true,
          "internalType": "uint256",
          "name": "id",
          "type": "uint256"
        }
      ],
      "name": "Transfer",
      "type": "event"
    },
    {
      "inputs": [],
      "name": "MAX_SUPPLY",
      "outputs": [
        {
          "internalType": "uint256",
          "name": "",
          "type": "uint256"
        }
      ],
      "stateMutability": "view",
      "type": "function"
    },
    {
      "inputs": [
        {
          "internalType": "address",
          "name": "spender",
          "type": "address"
        },
        {
          "internalType": "uint256",
          "name": "id",
          "type": "uint256"
        }
      ],
      "name": "approve",
      "outputs": [],
      "stateMutability": "nonpayable",
      "type": "function"
    },
    {
      "inputs": [
        {
          "internalType": "address",
          "name": "owner",
          "type": "address"
        }
      ],
      "name": "balanceOf",
      "outputs": [
        {
          "internalType": "uint256",
          "name": "",
          "type": "uint256"
        }
      ],
      "stateMutability": "view",
      "type": "function"
    },
    {
      "inputs": [],
      "name": "cost",
      "outputs": [
        {
          "internalType": "uint256",
          "name": "",
          "type": "uint256"
        }
      ],
      "stateMutability": "view",
      "type": "function"
    },
    {
      "inputs": [
        {
          "internalType": "uint256",
          "name": "",
          "type": "uint256"
        }
      ],
      "name": "getApproved",
      "outputs": [
        {
          "internalType": "address",
          "name": "",
          "type": "address"
        }
      ],
      "stateMutability": "view",
      "type": "function"
    },
    {
      "inputs": [
        {
          "internalType": "address",
          "name": "",
          "type": "address"
        },
        {
          "internalType": "address",
          "name": "",
          "type": "address"
        }
      ],
      "name": "isApprovedForAll",
      "outputs": [
        {
          "internalType": "bool",
          "name": "",
          "type": "bool"
        }
      ],
      "stateMutability": "view",
      "type": "function"
    },
    {
      "inputs": [],
      "name": "merkleRoot",
      "outputs": [
        {
          "internalType": "bytes32",
          "name": "",
          "type": "bytes32"
        }
      ],
      "stateMutability": "view",
      "type": "function"
    },
    {
      "inputs": [
        {
          "internalType": "address",
          "name": "_to",
          "type": "address"
        },
        {
          "internalType": "uint256",
          "name": "_quantity",
          "type": "uint256"
        }
      ],
      "name": "mint",
      "outputs": [],
      "stateMutability": "payable",
      "type": "function"
    },
    {
      "inputs": [],
      "name": "minted",
      "outputs": [
        {
          "internalType": "uint256",
          "name": "",
          "type": "uint256"
        }
      ],
      "stateMutability": "view",
      "type": "function"
    },
    {
      "inputs": [],
      "name": "name",
      "outputs": [
        {
          "internalType": "string",
          "name": "",
          "type": "string"
        }
      ],
      "stateMutability": "view",
      "type": "function"
    },
    {
      "inputs": [],
      "name": "owner",
      "outputs": [
        {
          "internalType": "address",
          "name": "",
          "type": "address"
        }
      ],
      "stateMutability": "view",
      "type": "function"
    },
    {
      "inputs": [
        {
          "internalType": "uint256",
          "name": "id",
          "type": "uint256"
        }
      ],
      "name": "ownerOf",
      "outputs": [
        {
          "internalType": "address",
          "name": "owner",
          "type": "address"
        }
      ],
      "stateMutability": "view",
      "type": "function"
    },
    {
      "inputs": [],
      "name": "renounceOwnership",
      "outputs": [],
      "stateMutability": "nonpayable",
      "type": "function"
    },
    {
      "inputs": [
        {
          "internalType": "address",
          "name": "from",
          "type": "address"
        },
        {
          "internalType": "address",
          "name": "to",
          "type": "address"
        },
        {
          "internalType": "uint256",
          "name": "id",
          "type": "uint256"
        }
      ],
      "name": "safeTransferFrom",
      "outputs": [],
      "stateMutability": "nonpayable",
      "type": "function"
    },
    {
      "inputs": [
        {
          "internalType": "address",
          "name": "from",
          "type": "address"
        },
        {
          "internalType": "address",
          "name": "to",
          "type": "address"
        },
        {
          "internalType": "uint256",
          "name": "id",
          "type": "uint256"
        },
        {
          "internalType": "bytes",
          "name": "data",
          "type": "bytes"
        }
      ],
      "name": "safeTransferFrom",
      "outputs": [],
      "stateMutability": "nonpayable",
      "type": "function"
    },
    {
      "inputs": [
        {
          "internalType": "address",
          "name": "operator",
          "type": "address"
        },
        {
          "internalType": "bool",
          "name": "approved",
          "type": "bool"
        }
      ],
      "name": "setApprovalForAll",
      "outputs": [],
      "stateMutability": "nonpayable",
      "type": "function"
    },
    {
      "inputs": [
        {
          "internalType": "uint256",
          "name": "_cost",
          "type": "uint256"
        }
      ],
      "name": "setCost",
      "outputs": [],
      "stateMutability": "nonpayable",
      "type": "function"
    },
    {
      "inputs": [
        {
          "internalType": "bytes32",
          "name": "_root",
          "type": "bytes32"
        }
      ],
      "name": "setMerkleRoot",
      "outputs": [],
      "stateMutability": "nonpayable",
      "type": "function"
    },
    {
      "inputs": [
        {
          "internalType": "bytes4",
          "name": "interfaceId",
          "type": "bytes4"
        }
      ],
      "name": "supportsInterface",
      "outputs": [
        {
          "internalType": "bool",
          "name": "",
          "type": "bool"
        }
      ],
      "stateMutability": "view",
      "type": "function"
    },
    {
      "inputs": [],
      "name": "symbol",
      "outputs": [
        {
          "internalType": "string",
          "name": "",
          "type": "string"
        }
      ],
      "stateMutability": "view",
      "type": "function"
    },
    {
      "inputs": [
        {
          "internalType": "uint256",
          "name": "_tokenId",
          "type": "uint256"
        }
      ],
      "name": "tokenURI",
      "outputs": [
        {
          "internalType": "string",
          "name": "",
          "type": "string"
        }
      ],
      "stateMutability": "view",
      "type": "function"
    },
    {
      "inputs": [
        {
          "internalType": "address",
          "name": "from",
          "type": "address"
        },
        {
          "internalType": "address",
          "name": "to",
          "type": "address"
        },
        {
          "internalType": "uint256",
          "name": "id",
          "type": "uint256"
        }
      ],
      "name": "transferFrom",
      "outputs": [],
      "stateMutability": "nonpayable",
      "type": "function"
    },
    {
      "inputs": [
        {
          "internalType": "address",
          "name": "newOwner",
          "type": "address"
        }
      ],
      "name": "transferOwnership",
      "outputs": [],
      "stateMutability": "nonpayable",
      "type": "function"
    },
    {
      "inputs": [],
      "name": "uri",
      "outputs": [
        {
          "internalType": "string",
          "name": "",
          "type": "string"
        }
      ],
      "stateMutability": "view",
      "type": "function"
    },
    {
      "inputs": [
        {
          "internalType": "address",
          "name": "_to",
          "type": "address"
        },
        {
          "internalType": "uint256",
          "name": "_quantity",
          "type": "uint256"
        },
        {
          "internalType": "bytes32[]",
          "name": "_proof",
          "type": "bytes32[]"
        }
      ],
      "name": "whitelistMint",
      "outputs": [],
      "stateMutability": "payable",
      "type": "function"
    }
  ],
  "bytecode": "0x608060405266b1a2bc2ec5000060075560405180608001604052806058815260200162002eee60589139600a908051906020019062000040929190620001d5565b506040518060400160405280601b81526020017f457468657265756d204d65726b6c65204578616d706c65204e465400000000008152506040518060400160405280600681526020017f4554484d524b00000000000000000000000000000000000000000000000000008152508160009080519060200190620000c5929190620001d5565b508060019080519060200190620000de929190620001d5565b50505062000101620000f56200010760201b60201c565b6200010f60201b60201c565b620002ea565b600033905090565b6000600660009054906101000a900473ffffffffffffffffffffffffffffffffffffffff16905081600660006101000a81548173ffffffffffffffffffffffffffffffffffffffff021916908373ffffffffffffffffffffffffffffffffffffffff1602179055508173ffffffffffffffffffffffffffffffffffffffff168173ffffffffffffffffffffffffffffffffffffffff167f8be0079c531659141344cd1fd0a4f28419497f9722a3daafe3b4186f6b6457e060405160405180910390a35050565b828054620001e390620002b4565b90600052602060002090601f01602090048101928262000207576000855562000253565b82601f106200022257805160ff191683800117855562000253565b8280016001018555821562000253579182015b828111156200025257825182559160200191906001019062000235565b5b50905062000262919062000266565b5090565b5b808211156200028157600081600090555060010162000267565b5090565b7f4e487b7100000000000000000000000000000000000000000000000000000000600052602260045260246000fd5b60006002820490506001821680620002cd57607f821691505b60208210811415620002e457620002e362000285565b5b50919050565b612bf480620002fa6000396000f3fe6080604052600436106101665760003560e01c80634f02c420116100d157806395d89b411161008a578063c87b56dd11610064578063c87b56dd146104fa578063e985e9c514610537578063eac989f814610574578063f2fde38b1461059f57610166565b806395d89b411461047d578063a22cb465146104a8578063b88d4fde146104d157610166565b80634f02c4201461036d5780636352211e1461039857806370a08231146103d5578063715018a6146104125780637cb64759146104295780638da5cb5b1461045257610166565b80632eb4a7ab116101235780632eb4a7ab1461028d57806332cb6b0c146102b857806340c10f19146102e357806342842e0e146102ff57806344a0d68a146103285780634b11faaf1461035157610166565b806301ffc9a71461016b57806306fdde03146101a8578063081812fc146101d3578063095ea7b31461021057806313faede61461023957806323b872dd14610264575b600080fd5b34801561017757600080fd5b50610192600480360381019061018d9190611d17565b6105c8565b60405161019f9190611d5f565b60405180910390f35b3480156101b457600080fd5b506101bd61065a565b6040516101ca9190611e13565b60405180910390f35b3480156101df57600080fd5b506101fa60048036038101906101f59190611e6b565b6106e8565b6040516102079190611ed9565b60405180910390f35b34801561021c57600080fd5b5061023760048036038101906102329190611f20565b61071b565b005b34801561024557600080fd5b5061024e610904565b60405161025b9190611f6f565b60405180910390f35b34801561027057600080fd5b5061028b60048036038101906102869190611f8a565b61090a565b005b34801561029957600080fd5b506102a2610d0a565b6040516102af9190611ff6565b60405180910390f35b3480156102c457600080fd5b506102cd610d10565b6040516102da9190611f6f565b60405180910390f35b6102fd60048036038101906102f89190611f20565b610d16565b005b34801561030b57600080fd5b5061032660048036038101906103219190611f8a565b610dfe565b005b34801561033457600080fd5b5061034f600480360381019061034a9190611e6b565b610f45565b005b61036b60048036038101906103669190612076565b610f57565b005b34801561037957600080fd5b506103826110fa565b60405161038f9190611f6f565b60405180910390f35b3480156103a457600080fd5b506103bf60048036038101906103ba9190611e6b565b611100565b6040516103cc9190611ed9565b60405180910390f35b3480156103e157600080fd5b506103fc60048036038101906103f791906120ea565b6111ac565b6040516104099190611f6f565b60405180910390f35b34801561041e57600080fd5b50610427611264565b005b34801561043557600080fd5b50610450600480360381019061044b9190612143565b611278565b005b34801561045e57600080fd5b5061046761128a565b6040516104749190611ed9565b60405180910390f35b34801561048957600080fd5b506104926112b4565b60405161049f9190611e13565b60405180910390f35b3480156104b457600080fd5b506104cf60048036038101906104ca919061219c565b611342565b005b3480156104dd57600080fd5b506104f860048036038101906104f39190612232565b61143f565b005b34801561050657600080fd5b50610521600480360381019061051c9190611e6b565b61158c565b60405161052e9190611e13565b60405180910390f35b34801561054357600080fd5b5061055e600480360381019061055991906122ba565b611620565b60405161056b9190611d5f565b60405180910390f35b34801561058057600080fd5b5061058961164f565b6040516105969190611e13565b60405180910390f35b3480156105ab57600080fd5b506105c660048036038101906105c191906120ea565b6116dd565b005b60006301ffc9a760e01b827bffffffffffffffffffffffffffffffffffffffffffffffffffffffff1916148061062357506380ac58cd60e01b827bffffffffffffffffffffffffffffffffffffffffffffffffffffffff1916145b806106535750635b5e139f60e01b827bffffffffffffffffffffffffffffffffffffffffffffffffffffffff1916145b9050919050565b6000805461066790612329565b80601f016020809104026020016040519081016040528092919081815260200182805461069390612329565b80156106e05780601f106106b5576101008083540402835291602001916106e0565b820191906000526020600020905b8154815290600101906020018083116106c357829003601f168201915b505050505081565b60046020528060005260406000206000915054906101000a900473ffffffffffffffffffffffffffffffffffffffff1681565b60006002600083815260200190815260200160002060009054906101000a900473ffffffffffffffffffffffffffffffffffffffff1690508073ffffffffffffffffffffffffffffffffffffffff163373ffffffffffffffffffffffffffffffffffffffff1614806108135750600560008273ffffffffffffffffffffffffffffffffffffffff1673ffffffffffffffffffffffffffffffffffffffff16815260200190815260200160002060003373ffffffffffffffffffffffffffffffffffffffff1673ffffffffffffffffffffffffffffffffffffffff16815260200190815260200160002060009054906101000a900460ff165b610852576040517f08c379a0000000000000000000000000000000000000000000000000000000008152600401610849906123a7565b60405180910390fd5b826004600084815260200190815260200160002060006101000a81548173ffffffffffffffffffffffffffffffffffffffff021916908373ffffffffffffffffffffffffffffffffffffffff160217905550818373ffffffffffffffffffffffffffffffffffffffff168273ffffffffffffffffffffffffffffffffffffffff167f8c5be1e5ebec7d5bd14f71427d1e84f3dd0314c0f7b2291e5b200ac8c7c3b92560405160405180910390a4505050565b60075481565b6002600082815260200190815260200160002060009054906101000a900473ffffffffffffffffffffffffffffffffffffffff1673ffffffffffffffffffffffffffffffffffffffff168373ffffffffffffffffffffffffffffffffffffffff16146109ab576040517f08c379a00000000000000000000000000000000000000000000000000000000081526004016109a290612413565b60405180910390fd5b600073ffffffffffffffffffffffffffffffffffffffff168273ffffffffffffffffffffffffffffffffffffffff161415610a1b576040517f08c379a0000000000000000000000000000000000000000000000000000000008152600401610a129061247f565b60405180910390fd5b8273ffffffffffffffffffffffffffffffffffffffff163373ffffffffffffffffffffffffffffffffffffffff161480610adb5750600560008473ffffffffffffffffffffffffffffffffffffffff1673ffffffffffffffffffffffffffffffffffffffff16815260200190815260200160002060003373ffffffffffffffffffffffffffffffffffffffff1673ffffffffffffffffffffffffffffffffffffffff16815260200190815260200160002060009054906101000a900460ff165b80610b4457506004600082815260200190815260200160002060009054906101000a900473ffffffffffffffffffffffffffffffffffffffff1673ffffffffffffffffffffffffffffffffffffffff163373ffffffffffffffffffffffffffffffffffffffff16145b610b83576040517f08c379a0000000000000000000000000000000000000000000000000000000008152600401610b7a906123a7565b60405180910390fd5b600360008473ffffffffffffffffffffffffffffffffffffffff1673ffffffffffffffffffffffffffffffffffffffff1681526020019081526020016000206000815480929190600190039190505550600360008373ffffffffffffffffffffffffffffffffffffffff1673ffffffffffffffffffffffffffffffffffffffff16815260200190815260200160002060008154809291906001019190505550816002600083815260200190815260200160002060006101000a81548173ffffffffffffffffffffffffffffffffffffffff021916908373ffffffffffffffffffffffffffffffffffffffff1602179055506004600082815260200190815260200160002060006101000a81549073ffffffffffffffffffffffffffffffffffffffff0219169055808273ffffffffffffffffffffffffffffffffffffffff168473ffffffffffffffffffffffffffffffffffffffff167fddf252ad1be2c89b69c2b068fc378daa952ba7f163c4a11628f55a4df523b3ef60405160405180910390a4505050565b60095481565b61271081565b803481600754610d2691906124ce565b14610d66576040517f08c379a0000000000000000000000000000000000000000000000000000000008152600401610d5d90612574565b60405180910390fd5b8161271081600854610d789190612594565b1115610db9576040517f08c379a0000000000000000000000000000000000000000000000000000000008152600401610db09061265c565b60405180910390fd5b60005b83811015610df757610de48560086000815480929190610ddb9061267c565b91905055611761565b8080610def9061267c565b915050610dbc565b5050505050565b610e0983838361090a565b60008273ffffffffffffffffffffffffffffffffffffffff163b1480610f01575063150b7a0260e01b7bffffffffffffffffffffffffffffffffffffffffffffffffffffffff19168273ffffffffffffffffffffffffffffffffffffffff1663150b7a023386856040518463ffffffff1660e01b8152600401610e8e939291906126fc565b602060405180830381600087803b158015610ea857600080fd5b505af1158015610ebc573d6000803e3d6000fd5b505050506040513d601f19601f82011682018060405250810190610ee0919061275b565b7bffffffffffffffffffffffffffffffffffffffffffffffffffffffff1916145b610f40576040517f08c379a0000000000000000000000000000000000000000000000000000000008152600401610f37906127d4565b60405180910390fd5b505050565b610f4d6118a7565b8060078190555050565b838282610fce828280806020026020016040519081016040528093929190818152602001838360200280828437600081840152601f19601f8201169050808301925050505050505060095485604051602001610fb3919061283c565b60405160208183030381529060405280519060200120611925565b61100d576040517f08c379a0000000000000000000000000000000000000000000000000000000008152600401611004906128a3565b60405180910390fd5b85348160075461101d91906124ce565b1461105d576040517f08c379a000000000000000000000000000000000000000000000000000000000815260040161105490612574565b60405180910390fd5b866127108160085461106f9190612594565b11156110b0576040517f08c379a00000000000000000000000000000000000000000000000000000000081526004016110a79061265c565b60405180910390fd5b60005b888110156110ee576110db8a600860008154809291906110d29061267c565b91905055611761565b80806110e69061267c565b9150506110b3565b50505050505050505050565b60085481565b60008073ffffffffffffffffffffffffffffffffffffffff166002600084815260200190815260200160002060009054906101000a900473ffffffffffffffffffffffffffffffffffffffff1691508173ffffffffffffffffffffffffffffffffffffffff1614156111a7576040517f08c379a000000000000000000000000000000000000000000000000000000000815260040161119e9061290f565b60405180910390fd5b919050565b60008073ffffffffffffffffffffffffffffffffffffffff168273ffffffffffffffffffffffffffffffffffffffff16141561121d576040517f08c379a00000000000000000000000000000000000000000000000000000000081526004016112149061297b565b60405180910390fd5b600360008373ffffffffffffffffffffffffffffffffffffffff1673ffffffffffffffffffffffffffffffffffffffff168152602001908152602001600020549050919050565b61126c6118a7565b611276600061193c565b565b6112806118a7565b8060098190555050565b6000600660009054906101000a900473ffffffffffffffffffffffffffffffffffffffff16905090565b600180546112c190612329565b80601f01602080910402602001604051908101604052809291908181526020018280546112ed90612329565b801561133a5780601f1061130f5761010080835404028352916020019161133a565b820191906000526020600020905b81548152906001019060200180831161131d57829003601f168201915b505050505081565b80600560003373ffffffffffffffffffffffffffffffffffffffff1673ffffffffffffffffffffffffffffffffffffffff16815260200190815260200160002060008473ffffffffffffffffffffffffffffffffffffffff1673ffffffffffffffffffffffffffffffffffffffff16815260200190815260200160002060006101000a81548160ff0219169083151502179055508173ffffffffffffffffffffffffffffffffffffffff163373ffffffffffffffffffffffffffffffffffffffff167f17307eab39ab6107e8899845ad3d59bd9653f200f220920489ca2b5937696c31836040516114339190611d5f565b60405180910390a35050565b61144a85858561090a565b60008473ffffffffffffffffffffffffffffffffffffffff163b1480611546575063150b7a0260e01b7bffffffffffffffffffffffffffffffffffffffffffffffffffffffff19168473ffffffffffffffffffffffffffffffffffffffff1663150b7a0233888787876040518663ffffffff1660e01b81526004016114d39594939291906129d7565b602060405180830381600087803b1580156114ed57600080fd5b505af1158015611501573d6000803e3d6000fd5b505050506040513d601f19601f82011682018060405250810190611525919061275b565b7bffffffffffffffffffffffffffffffffffffffffffffffffffffffff1916145b611585576040517f08c379a000000000000000000000000000000000000000000000000000000000815260040161157c906127d4565b60405180910390fd5b5050505050565b6060600a805461159b90612329565b80601f01602080910402602001604051908101604052809291908181526020018280546115c790612329565b80156116145780601f106115e957610100808354040283529160200191611614565b820191906000526020600020905b8154815290600101906020018083116115f757829003601f168201915b50505050509050919050565b60056020528160005260406000206020528060005260406000206000915091509054906101000a900460ff1681565b600a805461165c90612329565b80601f016020809104026020016040519081016040528092919081815260200182805461168890612329565b80156116d55780601f106116aa576101008083540402835291602001916116d5565b820191906000526020600020905b8154815290600101906020018083116116b857829003601f168201915b505050505081565b6116e56118a7565b600073ffffffffffffffffffffffffffffffffffffffff168173ffffffffffffffffffffffffffffffffffffffff161415611755576040517f08c379a000000000000000000000000000000000000000000000000000000000815260040161174c90612a97565b60405180910390fd5b61175e8161193c565b50565b61176b8282611a02565b60008273ffffffffffffffffffffffffffffffffffffffff163b1480611864575063150b7a0260e01b7bffffffffffffffffffffffffffffffffffffffffffffffffffffffff19168273ffffffffffffffffffffffffffffffffffffffff1663150b7a02336000856040518463ffffffff1660e01b81526004016117f1939291906126fc565b602060405180830381600087803b15801561180b57600080fd5b505af115801561181f573d6000803e3d6000fd5b505050506040513d601f19601f82011682018060405250810190611843919061275b565b7bffffffffffffffffffffffffffffffffffffffffffffffffffffffff1916145b6118a3576040517f08c379a000000000000000000000000000000000000000000000000000000000815260040161189a906127d4565b60405180910390fd5b5050565b6118af611c15565b73ffffffffffffffffffffffffffffffffffffffff166118cd61128a565b73ffffffffffffffffffffffffffffffffffffffff1614611923576040517f08c379a000000000000000000000000000000000000000000000000000000000815260040161191a90612b03565b60405180910390fd5b565b6000826119328584611c1d565b1490509392505050565b6000600660009054906101000a900473ffffffffffffffffffffffffffffffffffffffff16905081600660006101000a81548173ffffffffffffffffffffffffffffffffffffffff021916908373ffffffffffffffffffffffffffffffffffffffff1602179055508173ffffffffffffffffffffffffffffffffffffffff168173ffffffffffffffffffffffffffffffffffffffff167f8be0079c531659141344cd1fd0a4f28419497f9722a3daafe3b4186f6b6457e060405160405180910390a35050565b600073ffffffffffffffffffffffffffffffffffffffff168273ffffffffffffffffffffffffffffffffffffffff161415611a72576040517f08c379a0000000000000000000000000000000000000000000000000000000008152600401611a699061247f565b60405180910390fd5b600073ffffffffffffffffffffffffffffffffffffffff166002600083815260200190815260200160002060009054906101000a900473ffffffffffffffffffffffffffffffffffffffff1673ffffffffffffffffffffffffffffffffffffffff1614611b14576040517f08c379a0000000000000000000000000000000000000000000000000000000008152600401611b0b90612b6f565b60405180910390fd5b600360008373ffffffffffffffffffffffffffffffffffffffff1673ffffffffffffffffffffffffffffffffffffffff16815260200190815260200160002060008154809291906001019190505550816002600083815260200190815260200160002060006101000a81548173ffffffffffffffffffffffffffffffffffffffff021916908373ffffffffffffffffffffffffffffffffffffffff160217905550808273ffffffffffffffffffffffffffffffffffffffff16600073ffffffffffffffffffffffffffffffffffffffff167fddf252ad1be2c89b69c2b068fc378daa952ba7f163c4a11628f55a4df523b3ef60405160405180910390a45050565b600033905090565b60008082905060005b8451811015611c6857611c5382868381518110611c4657611c45612b8f565b5b6020026020010151611c73565b91508080611c609061267c565b915050611c26565b508091505092915050565b6000818310611c8b57611c868284611c9e565b611c96565b611c958383611c9e565b5b905092915050565b600082600052816020526040600020905092915050565b600080fd5b600080fd5b60007fffffffff0000000000000000000000000000000000000000000000000000000082169050919050565b611cf481611cbf565b8114611cff57600080fd5b50565b600081359050611d1181611ceb565b92915050565b600060208284031215611d2d57611d2c611cb5565b5b6000611d3b84828501611d02565b91505092915050565b60008115159050919050565b611d5981611d44565b82525050565b6000602082019050611d746000830184611d50565b92915050565b600081519050919050565b600082825260208201905092915050565b60005b83811015611db4578082015181840152602081019050611d99565b83811115611dc3576000848401525b50505050565b6000601f19601f8301169050919050565b6000611de582611d7a565b611def8185611d85565b9350611dff818560208601611d96565b611e0881611dc9565b840191505092915050565b60006020820190508181036000830152611e2d8184611dda565b905092915050565b6000819050919050565b611e4881611e35565b8114611e5357600080fd5b50565b600081359050611e6581611e3f565b92915050565b600060208284031215611e8157611e80611cb5565b5b6000611e8f84828501611e56565b91505092915050565b600073ffffffffffffffffffffffffffffffffffffffff82169050919050565b6000611ec382611e98565b9050919050565b611ed381611eb8565b82525050565b6000602082019050611eee6000830184611eca565b92915050565b611efd81611eb8565b8114611f0857600080fd5b50565b600081359050611f1a81611ef4565b92915050565b60008060408385031215611f3757611f36611cb5565b5b6000611f4585828601611f0b565b9250506020611f5685828601611e56565b9150509250929050565b611f6981611e35565b82525050565b6000602082019050611f846000830184611f60565b92915050565b600080600060608486031215611fa357611fa2611cb5565b5b6000611fb186828701611f0b565b9350506020611fc286828701611f0b565b9250506040611fd386828701611e56565b9150509250925092565b6000819050919050565b611ff081611fdd565b82525050565b600060208201905061200b6000830184611fe7565b92915050565b600080fd5b600080fd5b600080fd5b60008083601f84011261203657612035612011565b5b8235905067ffffffffffffffff81111561205357612052612016565b5b60208301915083602082028301111561206f5761206e61201b565b5b9250929050565b600080600080606085870312156120905761208f611cb5565b5b600061209e87828801611f0b565b94505060206120af87828801611e56565b935050604085013567ffffffffffffffff8111156120d0576120cf611cba565b5b6120dc87828801612020565b925092505092959194509250565b600060208284031215612100576120ff611cb5565b5b600061210e84828501611f0b565b91505092915050565b61212081611fdd565b811461212b57600080fd5b50565b60008135905061213d81612117565b92915050565b60006020828403121561215957612158611cb5565b5b60006121678482850161212e565b91505092915050565b61217981611d44565b811461218457600080fd5b50565b60008135905061219681612170565b92915050565b600080604083850312156121b3576121b2611cb5565b5b60006121c185828601611f0b565b92505060206121d285828601612187565b9150509250929050565b60008083601f8401126121f2576121f1612011565b5b8235905067ffffffffffffffff81111561220f5761220e612016565b5b60208301915083600182028301111561222b5761222a61201b565b5b9250929050565b60008060008060006080868803121561224e5761224d611cb5565b5b600061225c88828901611f0b565b955050602061226d88828901611f0b565b945050604061227e88828901611e56565b935050606086013567ffffffffffffffff81111561229f5761229e611cba565b5b6122ab888289016121dc565b92509250509295509295909350565b600080604083850312156122d1576122d0611cb5565b5b60006122df85828601611f0b565b92505060206122f085828601611f0b565b9150509250929050565b7f4e487b7100000000000000000000000000000000000000000000000000000000600052602260045260246000fd5b6000600282049050600182168061234157607f821691505b60208210811415612355576123546122fa565b5b50919050565b7f4e4f545f415554484f52495a4544000000000000000000000000000000000000600082015250565b6000612391600e83611d85565b915061239c8261235b565b602082019050919050565b600060208201905081810360008301526123c081612384565b9050919050565b7f57524f4e475f46524f4d00000000000000000000000000000000000000000000600082015250565b60006123fd600a83611d85565b9150612408826123c7565b602082019050919050565b6000602082019050818103600083015261242c816123f0565b9050919050565b7f494e56414c49445f524543495049454e54000000000000000000000000000000600082015250565b6000612469601183611d85565b915061247482612433565b602082019050919050565b600060208201905081810360008301526124988161245c565b9050919050565b7f4e487b7100000000000000000000000000000000000000000000000000000000600052601160045260246000fd5b60006124d982611e35565b91506124e483611e35565b9250817fffffffffffffffffffffffffffffffffffffffffffffffffffffffffffffffff048311821515161561251d5761251c61249f565b5b828202905092915050565b7f496e636f7272656374204554482076616c75652073656e740000000000000000600082015250565b600061255e601883611d85565b915061256982612528565b602082019050919050565b6000602082019050818103600083015261258d81612551565b9050919050565b600061259f82611e35565b91506125aa83611e35565b9250827fffffffffffffffffffffffffffffffffffffffffffffffffffffffffffffffff038211156125df576125de61249f565b5b828201905092915050565b7f4e6f7420656e6f75676820746f6b656e73206c65667420666f72207175616e7460008201527f6974790000000000000000000000000000000000000000000000000000000000602082015250565b6000612646602383611d85565b9150612651826125ea565b604082019050919050565b6000602082019050818103600083015261267581612639565b9050919050565b600061268782611e35565b91507fffffffffffffffffffffffffffffffffffffffffffffffffffffffffffffffff8214156126ba576126b961249f565b5b600182019050919050565b600082825260208201905092915050565b50565b60006126e66000836126c5565b91506126f1826126d6565b600082019050919050565b60006080820190506127116000830186611eca565b61271e6020830185611eca565b61272b6040830184611f60565b818103606083015261273c816126d9565b9050949350505050565b60008151905061275581611ceb565b92915050565b60006020828403121561277157612770611cb5565b5b600061277f84828501612746565b91505092915050565b7f554e534146455f524543495049454e5400000000000000000000000000000000600082015250565b60006127be601083611d85565b91506127c982612788565b602082019050919050565b600060208201905081810360008301526127ed816127b1565b9050919050565b60008160601b9050919050565b600061280c826127f4565b9050919050565b600061281e82612801565b9050919050565b61283661283182611eb8565b612813565b82525050565b60006128488284612825565b60148201915081905092915050565b7f496e76616c696420616363657373206c6973742070726f6f6600000000000000600082015250565b600061288d601983611d85565b915061289882612857565b602082019050919050565b600060208201905081810360008301526128bc81612880565b9050919050565b7f4e4f545f4d494e54454400000000000000000000000000000000000000000000600082015250565b60006128f9600a83611d85565b9150612904826128c3565b602082019050919050565b60006020820190508181036000830152612928816128ec565b9050919050565b7f5a45524f5f414444524553530000000000000000000000000000000000000000600082015250565b6000612965600c83611d85565b91506129708261292f565b602082019050919050565b6000602082019050818103600083015261299481612958565b9050919050565b82818337600083830152505050565b60006129b683856126c5565b93506129c383858461299b565b6129cc83611dc9565b840190509392505050565b60006080820190506129ec6000830188611eca565b6129f96020830187611eca565b612a066040830186611f60565b8181036060830152612a198184866129aa565b90509695505050505050565b7f4f776e61626c653a206e6577206f776e657220697320746865207a65726f206160008201527f6464726573730000000000000000000000000000000000000000000000000000602082015250565b6000612a81602683611d85565b9150612a8c82612a25565b604082019050919050565b60006020820190508181036000830152612ab081612a74565b9050919050565b7f4f776e61626c653a2063616c6c6572206973206e6f7420746865206f776e6572600082015250565b6000612aed602083611d85565b9150612af882612ab7565b602082019050919050565b60006020820190508181036000830152612b1c81612ae0565b9050919050565b7f414c52454144595f4d494e544544000000000000000000000000000000000000600082015250565b6000612b59600e83611d85565b9150612b6482612b23565b602082019050919050565b60006020820190508181036000830152612b8881612b4c565b9050919050565b7f4e487b7100000000000000000000000000000000000000000000000000000000600052603260045260246000fdfea264697066735822122033ef8f6f40e3b93d8307e9702602a02ea78be797240a5dd91ebfa156438adaaa64736f6c6343000809003368747470733a2f2f6e667473746f726167652e6c696e6b2f697066732f6261666b726569667962356a6574656d753271663270626964373234366b7673756d7a7371696d357a336a616272357a72623366756b6833356b69",
  "linkReferences": {},
  "deployedLinkReferences": {}
}