{
  "_format": "hh-sol-artifact-1",
  "contractName": "MetadataTester",
  "sourceName": "contracts/MetadataTester.sol",
  "abi": [
    {
      "inputs": [],
      "stateMutability": "payable",
      "type": "constructor"
    },
    {
      "anonymous": false,
      "inputs": [
        {
          "indexed": true,
          "internalType": "address",
          "name": "owner",
          "type": "address"
        },
        {
          "indexed": true,
          "internalType": "address",
          "name": "spender",
          "type": "address"
        },
        {
          "indexed": true,
          "internalType": "uint256",
          "name": "id",
          "type": "uint256"
        }
      ],
      "name": "Approval",
      "type": "event"
    },
    {
      "anonymous": false,
      "inputs": [
        {
          "indexed": true,
          "internalType": "address",
          "name": "owner",
          "type": "address"
        },
        {
          "indexed": true,
          "internalType": "address",
          "name": "operator",
          "type": "address"
        },
        {
          "indexed": false,
          "internalType": "bool",
          "name": "approved",
          "type": "bool"
        }
      ],
      "name": "ApprovalForAll",
      "type": "event"
    },
    {
      "anonymous": false,
      "inputs": [
        {
          "indexed": true,
          "internalType": "address",
          "name": "previousOwner",
          "type": "address"
        },
        {
          "indexed": true,
          "internalType": "address",
          "name": "newOwner",
          "type": "address"
        }
      ],
      "name": "OwnershipTransferred",
      "type": "event"
    },
    {
      "anonymous": false,
      "inputs": [
        {
          "indexed": true,
          "internalType": "address",
          "name": "from",
          "type": "address"
        },
        {
          "indexed": true,
          "internalType": "address",
          "name": "to",
          "type": "address"
        },
        {
          "indexed": true,
          "internalType": "uint256",
          "name": "id",
          "type": "uint256"
        }
      ],
      "name": "Transfer",
      "type": "event"
    },
    {
      "inputs": [],
      "name": "MAX_SUPPLY",
      "outputs": [
        {
          "internalType": "uint256",
          "name": "",
          "type": "uint256"
        }
      ],
      "stateMutability": "view",
      "type": "function"
    },
    {
      "inputs": [
        {
          "internalType": "address",
          "name": "spender",
          "type": "address"
        },
        {
          "internalType": "uint256",
          "name": "id",
          "type": "uint256"
        }
      ],
      "name": "approve",
      "outputs": [],
      "stateMutability": "nonpayable",
      "type": "function"
    },
    {
      "inputs": [
        {
          "internalType": "address",
          "name": "owner",
          "type": "address"
        }
      ],
      "name": "balanceOf",
      "outputs": [
        {
          "internalType": "uint256",
          "name": "",
          "type": "uint256"
        }
      ],
      "stateMutability": "view",
      "type": "function"
    },
    {
      "inputs": [
        {
          "internalType": "uint256",
          "name": "_tokenId",
          "type": "uint256"
        },
        {
          "internalType": "string",
          "name": "_tokenURI",
          "type": "string"
        }
      ],
      "name": "changeTokenUri",
      "outputs": [],
      "stateMutability": "nonpayable",
      "type": "function"
    },
    {
      "inputs": [],
      "name": "cost",
      "outputs": [
        {
          "internalType": "uint256",
          "name": "",
          "type": "uint256"
        }
      ],
      "stateMutability": "view",
      "type": "function"
    },
    {
      "inputs": [
        {
          "internalType": "uint256",
          "name": "",
          "type": "uint256"
        }
      ],
      "name": "getApproved",
      "outputs": [
        {
          "internalType": "address",
          "name": "",
          "type": "address"
        }
      ],
      "stateMutability": "view",
      "type": "function"
    },
    {
      "inputs": [
        {
          "internalType": "address",
          "name": "",
          "type": "address"
        },
        {
          "internalType": "address",
          "name": "",
          "type": "address"
        }
      ],
      "name": "isApprovedForAll",
      "outputs": [
        {
          "internalType": "bool",
          "name": "",
          "type": "bool"
        }
      ],
      "stateMutability": "view",
      "type": "function"
    },
    {
      "inputs": [
        {
          "internalType": "address",
          "name": "_to",
          "type": "address"
        },
        {
          "internalType": "string",
          "name": "_tokenURI",
          "type": "string"
        }
      ],
      "name": "mint",
      "outputs": [],
      "stateMutability": "payable",
      "type": "function"
    },
    {
      "inputs": [],
      "name": "minted",
      "outputs": [
        {
          "internalType": "uint256",
          "name": "",
          "type": "uint256"
        }
      ],
      "stateMutability": "view",
      "type": "function"
    },
    {
      "inputs": [],
      "name": "name",
      "outputs": [
        {
          "internalType": "string",
          "name": "",
          "type": "string"
        }
      ],
      "stateMutability": "view",
      "type": "function"
    },
    {
      "inputs": [],
      "name": "owner",
      "outputs": [
        {
          "internalType": "address",
          "name": "",
          "type": "address"
        }
      ],
      "stateMutability": "view",
      "type": "function"
    },
    {
      "inputs": [
        {
          "internalType": "uint256",
          "name": "id",
          "type": "uint256"
        }
      ],
      "name": "ownerOf",
      "outputs": [
        {
          "internalType": "address",
          "name": "owner",
          "type": "address"
        }
      ],
      "stateMutability": "view",
      "type": "function"
    },
    {
      "inputs": [],
      "name": "renounceOwnership",
      "outputs": [],
      "stateMutability": "nonpayable",
      "type": "function"
    },
    {
      "inputs": [
        {
          "internalType": "address",
          "name": "from",
          "type": "address"
        },
        {
          "internalType": "address",
          "name": "to",
          "type": "address"
        },
        {
          "internalType": "uint256",
          "name": "id",
          "type": "uint256"
        }
      ],
      "name": "safeTransferFrom",
      "outputs": [],
      "stateMutability": "nonpayable",
      "type": "function"
    },
    {
      "inputs": [
        {
          "internalType": "address",
          "name": "from",
          "type": "address"
        },
        {
          "internalType": "address",
          "name": "to",
          "type": "address"
        },
        {
          "internalType": "uint256",
          "name": "id",
          "type": "uint256"
        },
        {
          "internalType": "bytes",
          "name": "data",
          "type": "bytes"
        }
      ],
      "name": "safeTransferFrom",
      "outputs": [],
      "stateMutability": "nonpayable",
      "type": "function"
    },
    {
      "inputs": [
        {
          "internalType": "address",
          "name": "operator",
          "type": "address"
        },
        {
          "internalType": "bool",
          "name": "approved",
          "type": "bool"
        }
      ],
      "name": "setApprovalForAll",
      "outputs": [],
      "stateMutability": "nonpayable",
      "type": "function"
    },
    {
      "inputs": [
        {
          "internalType": "uint256",
          "name": "_cost",
          "type": "uint256"
        }
      ],
      "name": "setCost",
      "outputs": [],
      "stateMutability": "nonpayable",
      "type": "function"
    },
    {
      "inputs": [
        {
          "internalType": "bytes4",
          "name": "interfaceId",
          "type": "bytes4"
        }
      ],
      "name": "supportsInterface",
      "outputs": [
        {
          "internalType": "bool",
          "name": "",
          "type": "bool"
        }
      ],
      "stateMutability": "view",
      "type": "function"
    },
    {
      "inputs": [],
      "name": "symbol",
      "outputs": [
        {
          "internalType": "string",
          "name": "",
          "type": "string"
        }
      ],
      "stateMutability": "view",
      "type": "function"
    },
    {
      "inputs": [
        {
          "internalType": "uint256",
          "name": "_tokenId",
          "type": "uint256"
        }
      ],
      "name": "tokenURI",
      "outputs": [
        {
          "internalType": "string",
          "name": "",
          "type": "string"
        }
      ],
      "stateMutability": "view",
      "type": "function"
    },
    {
      "inputs": [
        {
          "internalType": "uint256",
          "name": "",
          "type": "uint256"
        }
      ],
      "name": "tokenUriMapping",
      "outputs": [
        {
          "internalType": "string",
          "name": "",
          "type": "string"
        }
      ],
      "stateMutability": "view",
      "type": "function"
    },
    {
      "inputs": [
        {
          "internalType": "address",
          "name": "from",
          "type": "address"
        },
        {
          "internalType": "address",
          "name": "to",
          "type": "address"
        },
        {
          "internalType": "uint256",
          "name": "id",
          "type": "uint256"
        }
      ],
      "name": "transferFrom",
      "outputs": [],
      "stateMutability": "nonpayable",
      "type": "function"
    },
    {
      "inputs": [
        {
          "internalType": "address",
          "name": "newOwner",
          "type": "address"
        }
      ],
      "name": "transferOwnership",
      "outputs": [],
      "stateMutability": "nonpayable",
      "type": "function"
    }
  ],
  "bytecode": "0x608060405266038d7ea4c680006007556040518060400160405280600f81526020017f4d657461646174612054657374657200000000000000000000000000000000008152506040518060400160405280600681526020017f4d44545354520000000000000000000000000000000000000000000000000000815250816000908051906020019062000093929190620001a3565b508060019080519060200190620000ac929190620001a3565b505050620000cf620000c3620000d560201b60201c565b620000dd60201b60201c565b620002b8565b600033905090565b6000600660009054906101000a900473ffffffffffffffffffffffffffffffffffffffff16905081600660006101000a81548173ffffffffffffffffffffffffffffffffffffffff021916908373ffffffffffffffffffffffffffffffffffffffff1602179055508173ffffffffffffffffffffffffffffffffffffffff168173ffffffffffffffffffffffffffffffffffffffff167f8be0079c531659141344cd1fd0a4f28419497f9722a3daafe3b4186f6b6457e060405160405180910390a35050565b828054620001b19062000282565b90600052602060002090601f016020900481019282620001d5576000855562000221565b82601f10620001f057805160ff191683800117855562000221565b8280016001018555821562000221579182015b828111156200022057825182559160200191906001019062000203565b5b50905062000230919062000234565b5090565b5b808211156200024f57600081600090555060010162000235565b5090565b7f4e487b7100000000000000000000000000000000000000000000000000000000600052602260045260246000fd5b600060028204905060018216806200029b57607f821691505b60208210811415620002b257620002b162000253565b5b50919050565b61286380620002c86000396000f3fe6080604052600436106101405760003560e01c806370a08231116100b6578063c3ac3ad21161006f578063c3ac3ad214610448578063c87b56dd14610471578063d0def521146104ae578063e985e9c5146104ca578063f2fde38b14610507578063f46f830a1461053057610140565b806370a082311461034c578063715018a6146103895780638da5cb5b146103a057806395d89b41146103cb578063a22cb465146103f6578063b88d4fde1461041f57610140565b806323b872dd1161010857806323b872dd1461023e57806332cb6b0c1461026757806342842e0e1461029257806344a0d68a146102bb5780634f02c420146102e45780636352211e1461030f57610140565b806301ffc9a71461014557806306fdde0314610182578063081812fc146101ad578063095ea7b3146101ea57806313faede614610213575b600080fd5b34801561015157600080fd5b5061016c60048036038101906101679190611b45565b61056d565b6040516101799190611b8d565b60405180910390f35b34801561018e57600080fd5b506101976105ff565b6040516101a49190611c41565b60405180910390f35b3480156101b957600080fd5b506101d460048036038101906101cf9190611c99565b61068d565b6040516101e19190611d07565b60405180910390f35b3480156101f657600080fd5b50610211600480360381019061020c9190611d4e565b6106c0565b005b34801561021f57600080fd5b506102286108a9565b6040516102359190611d9d565b60405180910390f35b34801561024a57600080fd5b5061026560048036038101906102609190611db8565b6108af565b005b34801561027357600080fd5b5061027c610caf565b6040516102899190611d9d565b60405180910390f35b34801561029e57600080fd5b506102b960048036038101906102b49190611db8565b610cb5565b005b3480156102c757600080fd5b506102e260048036038101906102dd9190611c99565b610dfc565b005b3480156102f057600080fd5b506102f9610e0e565b6040516103069190611d9d565b60405180910390f35b34801561031b57600080fd5b5061033660048036038101906103319190611c99565b610e14565b6040516103439190611d07565b60405180910390f35b34801561035857600080fd5b50610373600480360381019061036e9190611e0b565b610ec0565b6040516103809190611d9d565b60405180910390f35b34801561039557600080fd5b5061039e610f78565b005b3480156103ac57600080fd5b506103b5610f8c565b6040516103c29190611d07565b60405180910390f35b3480156103d757600080fd5b506103e0610fb6565b6040516103ed9190611c41565b60405180910390f35b34801561040257600080fd5b5061041d60048036038101906104189190611e64565b611044565b005b34801561042b57600080fd5b5061044660048036038101906104419190611f09565b611141565b005b34801561045457600080fd5b5061046f600480360381019061046a9190611fe7565b61128e565b005b34801561047d57600080fd5b5061049860048036038101906104939190611c99565b6112be565b6040516104a59190611c41565b60405180910390f35b6104c860048036038101906104c39190612047565b611363565b005b3480156104d657600080fd5b506104f160048036038101906104ec91906120a7565b611448565b6040516104fe9190611b8d565b60405180910390f35b34801561051357600080fd5b5061052e60048036038101906105299190611e0b565b611477565b005b34801561053c57600080fd5b5061055760048036038101906105529190611c99565b6114fb565b6040516105649190611c41565b60405180910390f35b60006301ffc9a760e01b827bffffffffffffffffffffffffffffffffffffffffffffffffffffffff191614806105c857506380ac58cd60e01b827bffffffffffffffffffffffffffffffffffffffffffffffffffffffff1916145b806105f85750635b5e139f60e01b827bffffffffffffffffffffffffffffffffffffffffffffffffffffffff1916145b9050919050565b6000805461060c90612116565b80601f016020809104026020016040519081016040528092919081815260200182805461063890612116565b80156106855780601f1061065a57610100808354040283529160200191610685565b820191906000526020600020905b81548152906001019060200180831161066857829003601f168201915b505050505081565b60046020528060005260406000206000915054906101000a900473ffffffffffffffffffffffffffffffffffffffff1681565b60006002600083815260200190815260200160002060009054906101000a900473ffffffffffffffffffffffffffffffffffffffff1690508073ffffffffffffffffffffffffffffffffffffffff163373ffffffffffffffffffffffffffffffffffffffff1614806107b85750600560008273ffffffffffffffffffffffffffffffffffffffff1673ffffffffffffffffffffffffffffffffffffffff16815260200190815260200160002060003373ffffffffffffffffffffffffffffffffffffffff1673ffffffffffffffffffffffffffffffffffffffff16815260200190815260200160002060009054906101000a900460ff165b6107f7576040517f08c379a00000000000000000000000000000000000000000000000000000000081526004016107ee90612194565b60405180910390fd5b826004600084815260200190815260200160002060006101000a81548173ffffffffffffffffffffffffffffffffffffffff021916908373ffffffffffffffffffffffffffffffffffffffff160217905550818373ffffffffffffffffffffffffffffffffffffffff168273ffffffffffffffffffffffffffffffffffffffff167f8c5be1e5ebec7d5bd14f71427d1e84f3dd0314c0f7b2291e5b200ac8c7c3b92560405160405180910390a4505050565b60075481565b6002600082815260200190815260200160002060009054906101000a900473ffffffffffffffffffffffffffffffffffffffff1673ffffffffffffffffffffffffffffffffffffffff168373ffffffffffffffffffffffffffffffffffffffff1614610950576040517f08c379a000000000000000000000000000000000000000000000000000000000815260040161094790612200565b60405180910390fd5b600073ffffffffffffffffffffffffffffffffffffffff168273ffffffffffffffffffffffffffffffffffffffff1614156109c0576040517f08c379a00000000000000000000000000000000000000000000000000000000081526004016109b79061226c565b60405180910390fd5b8273ffffffffffffffffffffffffffffffffffffffff163373ffffffffffffffffffffffffffffffffffffffff161480610a805750600560008473ffffffffffffffffffffffffffffffffffffffff1673ffffffffffffffffffffffffffffffffffffffff16815260200190815260200160002060003373ffffffffffffffffffffffffffffffffffffffff1673ffffffffffffffffffffffffffffffffffffffff16815260200190815260200160002060009054906101000a900460ff165b80610ae957506004600082815260200190815260200160002060009054906101000a900473ffffffffffffffffffffffffffffffffffffffff1673ffffffffffffffffffffffffffffffffffffffff163373ffffffffffffffffffffffffffffffffffffffff16145b610b28576040517f08c379a0000000000000000000000000000000000000000000000000000000008152600401610b1f90612194565b60405180910390fd5b600360008473ffffffffffffffffffffffffffffffffffffffff1673ffffffffffffffffffffffffffffffffffffffff1681526020019081526020016000206000815480929190600190039190505550600360008373ffffffffffffffffffffffffffffffffffffffff1673ffffffffffffffffffffffffffffffffffffffff16815260200190815260200160002060008154809291906001019190505550816002600083815260200190815260200160002060006101000a81548173ffffffffffffffffffffffffffffffffffffffff021916908373ffffffffffffffffffffffffffffffffffffffff1602179055506004600082815260200190815260200160002060006101000a81549073ffffffffffffffffffffffffffffffffffffffff0219169055808273ffffffffffffffffffffffffffffffffffffffff168473ffffffffffffffffffffffffffffffffffffffff167fddf252ad1be2c89b69c2b068fc378daa952ba7f163c4a11628f55a4df523b3ef60405160405180910390a4505050565b61271081565b610cc08383836108af565b60008273ffffffffffffffffffffffffffffffffffffffff163b1480610db8575063150b7a0260e01b7bffffffffffffffffffffffffffffffffffffffffffffffffffffffff19168273ffffffffffffffffffffffffffffffffffffffff1663150b7a023386856040518463ffffffff1660e01b8152600401610d45939291906122c3565b602060405180830381600087803b158015610d5f57600080fd5b505af1158015610d73573d6000803e3d6000fd5b505050506040513d601f19601f82011682018060405250810190610d979190612322565b7bffffffffffffffffffffffffffffffffffffffffffffffffffffffff1916145b610df7576040517f08c379a0000000000000000000000000000000000000000000000000000000008152600401610dee9061239b565b60405180910390fd5b505050565b610e0461159b565b8060078190555050565b60085481565b60008073ffffffffffffffffffffffffffffffffffffffff166002600084815260200190815260200160002060009054906101000a900473ffffffffffffffffffffffffffffffffffffffff1691508173ffffffffffffffffffffffffffffffffffffffff161415610ebb576040517f08c379a0000000000000000000000000000000000000000000000000000000008152600401610eb290612407565b60405180910390fd5b919050565b60008073ffffffffffffffffffffffffffffffffffffffff168273ffffffffffffffffffffffffffffffffffffffff161415610f31576040517f08c379a0000000000000000000000000000000000000000000000000000000008152600401610f2890612473565b60405180910390fd5b600360008373ffffffffffffffffffffffffffffffffffffffff1673ffffffffffffffffffffffffffffffffffffffff168152602001908152602001600020549050919050565b610f8061159b565b610f8a6000611619565b565b6000600660009054906101000a900473ffffffffffffffffffffffffffffffffffffffff16905090565b60018054610fc390612116565b80601f0160208091040260200160405190810160405280929190818152602001828054610fef90612116565b801561103c5780601f106110115761010080835404028352916020019161103c565b820191906000526020600020905b81548152906001019060200180831161101f57829003601f168201915b505050505081565b80600560003373ffffffffffffffffffffffffffffffffffffffff1673ffffffffffffffffffffffffffffffffffffffff16815260200190815260200160002060008473ffffffffffffffffffffffffffffffffffffffff1673ffffffffffffffffffffffffffffffffffffffff16815260200190815260200160002060006101000a81548160ff0219169083151502179055508173ffffffffffffffffffffffffffffffffffffffff163373ffffffffffffffffffffffffffffffffffffffff167f17307eab39ab6107e8899845ad3d59bd9653f200f220920489ca2b5937696c31836040516111359190611b8d565b60405180910390a35050565b61114c8585856108af565b60008473ffffffffffffffffffffffffffffffffffffffff163b1480611248575063150b7a0260e01b7bffffffffffffffffffffffffffffffffffffffffffffffffffffffff19168473ffffffffffffffffffffffffffffffffffffffff1663150b7a0233888787876040518663ffffffff1660e01b81526004016111d59594939291906124cf565b602060405180830381600087803b1580156111ef57600080fd5b505af1158015611203573d6000803e3d6000fd5b505050506040513d601f19601f820116820180604052508101906112279190612322565b7bffffffffffffffffffffffffffffffffffffffffffffffffffffffff1916145b611287576040517f08c379a000000000000000000000000000000000000000000000000000000000815260040161127e9061239b565b60405180910390fd5b5050505050565b61129661159b565b81816009600086815260200190815260200160002091906112b8929190611a40565b50505050565b60606009600083815260200190815260200160002080546112de90612116565b80601f016020809104026020016040519081016040528092919081815260200182805461130a90612116565b80156113575780601f1061132c57610100808354040283529160200191611357565b820191906000526020600020905b81548152906001019060200180831161133a57829003601f168201915b50505050509050919050565b34600754146113a7576040517f08c379a000000000000000000000000000000000000000000000000000000000815260040161139e90612569565b60405180910390fd5b61271060016008546113b991906125b8565b11156113fa576040517f08c379a00000000000000000000000000000000000000000000000000000000081526004016113f19061265a565b60405180910390fd5b60006008600081548092919061140f9061267a565b9190505590508282600960008481526020019081526020016000209190611437929190611a40565b5061144284826116df565b50505050565b60056020528160005260406000206020528060005260406000206000915091509054906101000a900460ff1681565b61147f61159b565b600073ffffffffffffffffffffffffffffffffffffffff168173ffffffffffffffffffffffffffffffffffffffff1614156114ef576040517f08c379a00000000000000000000000000000000000000000000000000000000081526004016114e690612735565b60405180910390fd5b6114f881611619565b50565b6009602052806000526040600020600091509050805461151a90612116565b80601f016020809104026020016040519081016040528092919081815260200182805461154690612116565b80156115935780601f1061156857610100808354040283529160200191611593565b820191906000526020600020905b81548152906001019060200180831161157657829003601f168201915b505050505081565b6115a3611825565b73ffffffffffffffffffffffffffffffffffffffff166115c1610f8c565b73ffffffffffffffffffffffffffffffffffffffff1614611617576040517f08c379a000000000000000000000000000000000000000000000000000000000815260040161160e906127a1565b60405180910390fd5b565b6000600660009054906101000a900473ffffffffffffffffffffffffffffffffffffffff16905081600660006101000a81548173ffffffffffffffffffffffffffffffffffffffff021916908373ffffffffffffffffffffffffffffffffffffffff1602179055508173ffffffffffffffffffffffffffffffffffffffff168173ffffffffffffffffffffffffffffffffffffffff167f8be0079c531659141344cd1fd0a4f28419497f9722a3daafe3b4186f6b6457e060405160405180910390a35050565b6116e9828261182d565b60008273ffffffffffffffffffffffffffffffffffffffff163b14806117e2575063150b7a0260e01b7bffffffffffffffffffffffffffffffffffffffffffffffffffffffff19168273ffffffffffffffffffffffffffffffffffffffff1663150b7a02336000856040518463ffffffff1660e01b815260040161176f939291906122c3565b602060405180830381600087803b15801561178957600080fd5b505af115801561179d573d6000803e3d6000fd5b505050506040513d601f19601f820116820180604052508101906117c19190612322565b7bffffffffffffffffffffffffffffffffffffffffffffffffffffffff1916145b611821576040517f08c379a00000000000000000000000000000000000000000000000000000000081526004016118189061239b565b60405180910390fd5b5050565b600033905090565b600073ffffffffffffffffffffffffffffffffffffffff168273ffffffffffffffffffffffffffffffffffffffff16141561189d576040517f08c379a00000000000000000000000000000000000000000000000000000000081526004016118949061226c565b60405180910390fd5b600073ffffffffffffffffffffffffffffffffffffffff166002600083815260200190815260200160002060009054906101000a900473ffffffffffffffffffffffffffffffffffffffff1673ffffffffffffffffffffffffffffffffffffffff161461193f576040517f08c379a00000000000000000000000000000000000000000000000000000000081526004016119369061280d565b60405180910390fd5b600360008373ffffffffffffffffffffffffffffffffffffffff1673ffffffffffffffffffffffffffffffffffffffff16815260200190815260200160002060008154809291906001019190505550816002600083815260200190815260200160002060006101000a81548173ffffffffffffffffffffffffffffffffffffffff021916908373ffffffffffffffffffffffffffffffffffffffff160217905550808273ffffffffffffffffffffffffffffffffffffffff16600073ffffffffffffffffffffffffffffffffffffffff167fddf252ad1be2c89b69c2b068fc378daa952ba7f163c4a11628f55a4df523b3ef60405160405180910390a45050565b828054611a4c90612116565b90600052602060002090601f016020900481019282611a6e5760008555611ab5565b82601f10611a8757803560ff1916838001178555611ab5565b82800160010185558215611ab5579182015b82811115611ab4578235825591602001919060010190611a99565b5b509050611ac29190611ac6565b5090565b5b80821115611adf576000816000905550600101611ac7565b5090565b600080fd5b600080fd5b60007fffffffff0000000000000000000000000000000000000000000000000000000082169050919050565b611b2281611aed565b8114611b2d57600080fd5b50565b600081359050611b3f81611b19565b92915050565b600060208284031215611b5b57611b5a611ae3565b5b6000611b6984828501611b30565b91505092915050565b60008115159050919050565b611b8781611b72565b82525050565b6000602082019050611ba26000830184611b7e565b92915050565b600081519050919050565b600082825260208201905092915050565b60005b83811015611be2578082015181840152602081019050611bc7565b83811115611bf1576000848401525b50505050565b6000601f19601f8301169050919050565b6000611c1382611ba8565b611c1d8185611bb3565b9350611c2d818560208601611bc4565b611c3681611bf7565b840191505092915050565b60006020820190508181036000830152611c5b8184611c08565b905092915050565b6000819050919050565b611c7681611c63565b8114611c8157600080fd5b50565b600081359050611c9381611c6d565b92915050565b600060208284031215611caf57611cae611ae3565b5b6000611cbd84828501611c84565b91505092915050565b600073ffffffffffffffffffffffffffffffffffffffff82169050919050565b6000611cf182611cc6565b9050919050565b611d0181611ce6565b82525050565b6000602082019050611d1c6000830184611cf8565b92915050565b611d2b81611ce6565b8114611d3657600080fd5b50565b600081359050611d4881611d22565b92915050565b60008060408385031215611d6557611d64611ae3565b5b6000611d7385828601611d39565b9250506020611d8485828601611c84565b9150509250929050565b611d9781611c63565b82525050565b6000602082019050611db26000830184611d8e565b92915050565b600080600060608486031215611dd157611dd0611ae3565b5b6000611ddf86828701611d39565b9350506020611df086828701611d39565b9250506040611e0186828701611c84565b9150509250925092565b600060208284031215611e2157611e20611ae3565b5b6000611e2f84828501611d39565b91505092915050565b611e4181611b72565b8114611e4c57600080fd5b50565b600081359050611e5e81611e38565b92915050565b60008060408385031215611e7b57611e7a611ae3565b5b6000611e8985828601611d39565b9250506020611e9a85828601611e4f565b9150509250929050565b600080fd5b600080fd5b600080fd5b60008083601f840112611ec957611ec8611ea4565b5b8235905067ffffffffffffffff811115611ee657611ee5611ea9565b5b602083019150836001820283011115611f0257611f01611eae565b5b9250929050565b600080600080600060808688031215611f2557611f24611ae3565b5b6000611f3388828901611d39565b9550506020611f4488828901611d39565b9450506040611f5588828901611c84565b935050606086013567ffffffffffffffff811115611f7657611f75611ae8565b5b611f8288828901611eb3565b92509250509295509295909350565b60008083601f840112611fa757611fa6611ea4565b5b8235905067ffffffffffffffff811115611fc457611fc3611ea9565b5b602083019150836001820283011115611fe057611fdf611eae565b5b9250929050565b60008060006040848603121561200057611fff611ae3565b5b600061200e86828701611c84565b935050602084013567ffffffffffffffff81111561202f5761202e611ae8565b5b61203b86828701611f91565b92509250509250925092565b6000806000604084860312156120605761205f611ae3565b5b600061206e86828701611d39565b935050602084013567ffffffffffffffff81111561208f5761208e611ae8565b5b61209b86828701611f91565b92509250509250925092565b600080604083850312156120be576120bd611ae3565b5b60006120cc85828601611d39565b92505060206120dd85828601611d39565b9150509250929050565b7f4e487b7100000000000000000000000000000000000000000000000000000000600052602260045260246000fd5b6000600282049050600182168061212e57607f821691505b60208210811415612142576121416120e7565b5b50919050565b7f4e4f545f415554484f52495a4544000000000000000000000000000000000000600082015250565b600061217e600e83611bb3565b915061218982612148565b602082019050919050565b600060208201905081810360008301526121ad81612171565b9050919050565b7f57524f4e475f46524f4d00000000000000000000000000000000000000000000600082015250565b60006121ea600a83611bb3565b91506121f5826121b4565b602082019050919050565b60006020820190508181036000830152612219816121dd565b9050919050565b7f494e56414c49445f524543495049454e54000000000000000000000000000000600082015250565b6000612256601183611bb3565b915061226182612220565b602082019050919050565b6000602082019050818103600083015261228581612249565b9050919050565b600082825260208201905092915050565b50565b60006122ad60008361228c565b91506122b88261229d565b600082019050919050565b60006080820190506122d86000830186611cf8565b6122e56020830185611cf8565b6122f26040830184611d8e565b8181036060830152612303816122a0565b9050949350505050565b60008151905061231c81611b19565b92915050565b60006020828403121561233857612337611ae3565b5b60006123468482850161230d565b91505092915050565b7f554e534146455f524543495049454e5400000000000000000000000000000000600082015250565b6000612385601083611bb3565b91506123908261234f565b602082019050919050565b600060208201905081810360008301526123b481612378565b9050919050565b7f4e4f545f4d494e54454400000000000000000000000000000000000000000000600082015250565b60006123f1600a83611bb3565b91506123fc826123bb565b602082019050919050565b60006020820190508181036000830152612420816123e4565b9050919050565b7f5a45524f5f414444524553530000000000000000000000000000000000000000600082015250565b600061245d600c83611bb3565b915061246882612427565b602082019050919050565b6000602082019050818103600083015261248c81612450565b9050919050565b82818337600083830152505050565b60006124ae838561228c565b93506124bb838584612493565b6124c483611bf7565b840190509392505050565b60006080820190506124e46000830188611cf8565b6124f16020830187611cf8565b6124fe6040830186611d8e565b81810360608301526125118184866124a2565b90509695505050505050565b7f496e636f7272656374204554482076616c75652073656e740000000000000000600082015250565b6000612553601883611bb3565b915061255e8261251d565b602082019050919050565b6000602082019050818103600083015261258281612546565b9050919050565b7f4e487b7100000000000000000000000000000000000000000000000000000000600052601160045260246000fd5b60006125c382611c63565b91506125ce83611c63565b9250827fffffffffffffffffffffffffffffffffffffffffffffffffffffffffffffffff0382111561260357612602612589565b5b828201905092915050565b7f4e6f206d6f7265206c6566740000000000000000000000000000000000000000600082015250565b6000612644600c83611bb3565b915061264f8261260e565b602082019050919050565b6000602082019050818103600083015261267381612637565b9050919050565b600061268582611c63565b91507fffffffffffffffffffffffffffffffffffffffffffffffffffffffffffffffff8214156126b8576126b7612589565b5b600182019050919050565b7f4f776e61626c653a206e6577206f776e657220697320746865207a65726f206160008201527f6464726573730000000000000000000000000000000000000000000000000000602082015250565b600061271f602683611bb3565b915061272a826126c3565b604082019050919050565b6000602082019050818103600083015261274e81612712565b9050919050565b7f4f776e61626c653a2063616c6c6572206973206e6f7420746865206f776e6572600082015250565b600061278b602083611bb3565b915061279682612755565b602082019050919050565b600060208201905081810360008301526127ba8161277e565b9050919050565b7f414c52454144595f4d494e544544000000000000000000000000000000000000600082015250565b60006127f7600e83611bb3565b9150612802826127c1565b602082019050919050565b60006020820190508181036000830152612826816127ea565b905091905056fea2646970667358221220d8511a32cdcf3e2b7fa0815f77bcc848507408e8b285f11535e0a90aeb717ca064736f6c63430008090033",
  "linkReferences": {},
  "deployedLinkReferences": {}
}