{
  "_format": "hh-sol-artifact-1",
  "contractName": "Polygon721",
  "sourceName": "contracts/Polygon721.sol",
  "abi": [
    {
      "inputs": [],
      "stateMutability": "payable",
      "type": "constructor"
    },
    {
      "anonymous": false,
      "inputs": [
        {
          "indexed": true,
          "internalType": "address",
          "name": "owner",
          "type": "address"
        },
        {
          "indexed": true,
          "internalType": "address",
          "name": "spender",
          "type": "address"
        },
        {
          "indexed": true,
          "internalType": "uint256",
          "name": "id",
          "type": "uint256"
        }
      ],
      "name": "Approval",
      "type": "event"
    },
    {
      "anonymous": false,
      "inputs": [
        {
          "indexed": true,
          "internalType": "address",
          "name": "owner",
          "type": "address"
        },
        {
          "indexed": true,
          "internalType": "address",
          "name": "operator",
          "type": "address"
        },
        {
          "indexed": false,
          "internalType": "bool",
          "name": "approved",
          "type": "bool"
        }
      ],
      "name": "ApprovalForAll",
      "type": "event"
    },
    {
      "anonymous": false,
      "inputs": [
        {
          "indexed": true,
          "internalType": "address",
          "name": "previousOwner",
          "type": "address"
        },
        {
          "indexed": true,
          "internalType": "address",
          "name": "newOwner",
          "type": "address"
        }
      ],
      "name": "OwnershipTransferred",
      "type": "event"
    },
    {
      "anonymous": false,
      "inputs": [
        {
          "indexed": true,
          "internalType": "address",
          "name": "from",
          "type": "address"
        },
        {
          "indexed": true,
          "internalType": "address",
          "name": "to",
          "type": "address"
        },
        {
          "indexed": true,
          "internalType": "uint256",
          "name": "id",
          "type": "uint256"
        }
      ],
      "name": "Transfer",
      "type": "event"
    },
    {
      "inputs": [],
      "name": "MAX_SUPPLY",
      "outputs": [
        {
          "internalType": "uint256",
          "name": "",
          "type": "uint256"
        }
      ],
      "stateMutability": "view",
      "type": "function"
    },
    {
      "inputs": [
        {
          "internalType": "address",
          "name": "spender",
          "type": "address"
        },
        {
          "internalType": "uint256",
          "name": "id",
          "type": "uint256"
        }
      ],
      "name": "approve",
      "outputs": [],
      "stateMutability": "nonpayable",
      "type": "function"
    },
    {
      "inputs": [
        {
          "internalType": "address",
          "name": "owner",
          "type": "address"
        }
      ],
      "name": "balanceOf",
      "outputs": [
        {
          "internalType": "uint256",
          "name": "",
          "type": "uint256"
        }
      ],
      "stateMutability": "view",
      "type": "function"
    },
    {
      "inputs": [],
      "name": "cost",
      "outputs": [
        {
          "internalType": "uint256",
          "name": "",
          "type": "uint256"
        }
      ],
      "stateMutability": "view",
      "type": "function"
    },
    {
      "inputs": [
        {
          "internalType": "uint256",
          "name": "",
          "type": "uint256"
        }
      ],
      "name": "getApproved",
      "outputs": [
        {
          "internalType": "address",
          "name": "",
          "type": "address"
        }
      ],
      "stateMutability": "view",
      "type": "function"
    },
    {
      "inputs": [
        {
          "internalType": "address",
          "name": "",
          "type": "address"
        },
        {
          "internalType": "address",
          "name": "",
          "type": "address"
        }
      ],
      "name": "isApprovedForAll",
      "outputs": [
        {
          "internalType": "bool",
          "name": "",
          "type": "bool"
        }
      ],
      "stateMutability": "view",
      "type": "function"
    },
    {
      "inputs": [
        {
          "internalType": "address",
          "name": "_to",
          "type": "address"
        }
      ],
      "name": "mint",
      "outputs": [],
      "stateMutability": "payable",
      "type": "function"
    },
    {
      "inputs": [],
      "name": "minted",
      "outputs": [
        {
          "internalType": "uint256",
          "name": "",
          "type": "uint256"
        }
      ],
      "stateMutability": "view",
      "type": "function"
    },
    {
      "inputs": [],
      "name": "name",
      "outputs": [
        {
          "internalType": "string",
          "name": "",
          "type": "string"
        }
      ],
      "stateMutability": "view",
      "type": "function"
    },
    {
      "inputs": [],
      "name": "owner",
      "outputs": [
        {
          "internalType": "address",
          "name": "",
          "type": "address"
        }
      ],
      "stateMutability": "view",
      "type": "function"
    },
    {
      "inputs": [
        {
          "internalType": "uint256",
          "name": "id",
          "type": "uint256"
        }
      ],
      "name": "ownerOf",
      "outputs": [
        {
          "internalType": "address",
          "name": "owner",
          "type": "address"
        }
      ],
      "stateMutability": "view",
      "type": "function"
    },
    {
      "inputs": [],
      "name": "renounceOwnership",
      "outputs": [],
      "stateMutability": "nonpayable",
      "type": "function"
    },
    {
      "inputs": [
        {
          "internalType": "address",
          "name": "from",
          "type": "address"
        },
        {
          "internalType": "address",
          "name": "to",
          "type": "address"
        },
        {
          "internalType": "uint256",
          "name": "id",
          "type": "uint256"
        }
      ],
      "name": "safeTransferFrom",
      "outputs": [],
      "stateMutability": "nonpayable",
      "type": "function"
    },
    {
      "inputs": [
        {
          "internalType": "address",
          "name": "from",
          "type": "address"
        },
        {
          "internalType": "address",
          "name": "to",
          "type": "address"
        },
        {
          "internalType": "uint256",
          "name": "id",
          "type": "uint256"
        },
        {
          "internalType": "bytes",
          "name": "data",
          "type": "bytes"
        }
      ],
      "name": "safeTransferFrom",
      "outputs": [],
      "stateMutability": "nonpayable",
      "type": "function"
    },
    {
      "inputs": [
        {
          "internalType": "address",
          "name": "operator",
          "type": "address"
        },
        {
          "internalType": "bool",
          "name": "approved",
          "type": "bool"
        }
      ],
      "name": "setApprovalForAll",
      "outputs": [],
      "stateMutability": "nonpayable",
      "type": "function"
    },
    {
      "inputs": [
        {
          "internalType": "uint256",
          "name": "_cost",
          "type": "uint256"
        }
      ],
      "name": "setCost",
      "outputs": [],
      "stateMutability": "nonpayable",
      "type": "function"
    },
    {
      "inputs": [
        {
          "internalType": "bytes4",
          "name": "interfaceId",
          "type": "bytes4"
        }
      ],
      "name": "supportsInterface",
      "outputs": [
        {
          "internalType": "bool",
          "name": "",
          "type": "bool"
        }
      ],
      "stateMutability": "view",
      "type": "function"
    },
    {
      "inputs": [],
      "name": "symbol",
      "outputs": [
        {
          "internalType": "string",
          "name": "",
          "type": "string"
        }
      ],
      "stateMutability": "view",
      "type": "function"
    },
    {
      "inputs": [
        {
          "internalType": "uint256",
          "name": "_tokenId",
          "type": "uint256"
        }
      ],
      "name": "tokenURI",
      "outputs": [
        {
          "internalType": "string",
          "name": "",
          "type": "string"
        }
      ],
      "stateMutability": "view",
      "type": "function"
    },
    {
      "inputs": [
        {
          "internalType": "address",
          "name": "from",
          "type": "address"
        },
        {
          "internalType": "address",
          "name": "to",
          "type": "address"
        },
        {
          "internalType": "uint256",
          "name": "id",
          "type": "uint256"
        }
      ],
      "name": "transferFrom",
      "outputs": [],
      "stateMutability": "nonpayable",
      "type": "function"
    },
    {
      "inputs": [
        {
          "internalType": "address",
          "name": "newOwner",
          "type": "address"
        }
      ],
      "name": "transferOwnership",
      "outputs": [],
      "stateMutability": "nonpayable",
      "type": "function"
    },
    {
      "inputs": [],
      "name": "uri",
      "outputs": [
        {
          "internalType": "string",
          "name": "",
          "type": "string"
        }
      ],
      "stateMutability": "view",
      "type": "function"
    }
  ],
  "bytecode": "0x608060405266b1a2bc2ec50000600755604051806080016040528060588152602001620028e0605891396009908051906020019062000040929190620001d5565b506040518060400160405280600b81526020017f506f6c79676f6e204e46540000000000000000000000000000000000000000008152506040518060400160405280600781526020017f504f4c594e4654000000000000000000000000000000000000000000000000008152508160009080519060200190620000c5929190620001d5565b508060019080519060200190620000de929190620001d5565b50505062000101620000f56200010760201b60201c565b6200010f60201b60201c565b620002ea565b600033905090565b6000600660009054906101000a900473ffffffffffffffffffffffffffffffffffffffff16905081600660006101000a81548173ffffffffffffffffffffffffffffffffffffffff021916908373ffffffffffffffffffffffffffffffffffffffff1602179055508173ffffffffffffffffffffffffffffffffffffffff168173ffffffffffffffffffffffffffffffffffffffff167f8be0079c531659141344cd1fd0a4f28419497f9722a3daafe3b4186f6b6457e060405160405180910390a35050565b828054620001e390620002b4565b90600052602060002090601f01602090048101928262000207576000855562000253565b82601f106200022257805160ff191683800117855562000253565b8280016001018555821562000253579182015b828111156200025257825182559160200191906001019062000235565b5b50905062000262919062000266565b5090565b5b808211156200028157600081600090555060010162000267565b5090565b7f4e487b7100000000000000000000000000000000000000000000000000000000600052602260045260246000fd5b60006002820490506001821680620002cd57607f821691505b60208210811415620002e457620002e362000285565b5b50919050565b6125e680620002fa6000396000f3fe6080604052600436106101355760003560e01c80636a627842116100ab578063a22cb4651161006f578063a22cb46514610407578063b88d4fde14610430578063c87b56dd14610459578063e985e9c514610496578063eac989f8146104d3578063f2fde38b146104fe57610135565b80636a6278421461034157806370a082311461035d578063715018a61461039a5780638da5cb5b146103b157806395d89b41146103dc57610135565b806323b872dd116100fd57806323b872dd1461023357806332cb6b0c1461025c57806342842e0e1461028757806344a0d68a146102b05780634f02c420146102d95780636352211e1461030457610135565b806301ffc9a71461013a57806306fdde0314610177578063081812fc146101a2578063095ea7b3146101df57806313faede614610208575b600080fd5b34801561014657600080fd5b50610161600480360381019061015c91906119de565b610527565b60405161016e9190611a26565b60405180910390f35b34801561018357600080fd5b5061018c6105b9565b6040516101999190611ada565b60405180910390f35b3480156101ae57600080fd5b506101c960048036038101906101c49190611b32565b610647565b6040516101d69190611ba0565b60405180910390f35b3480156101eb57600080fd5b5061020660048036038101906102019190611be7565b61067a565b005b34801561021457600080fd5b5061021d610863565b60405161022a9190611c36565b60405180910390f35b34801561023f57600080fd5b5061025a60048036038101906102559190611c51565b610869565b005b34801561026857600080fd5b50610271610c69565b60405161027e9190611c36565b60405180910390f35b34801561029357600080fd5b506102ae60048036038101906102a99190611c51565b610c6f565b005b3480156102bc57600080fd5b506102d760048036038101906102d29190611b32565b610db6565b005b3480156102e557600080fd5b506102ee610dc8565b6040516102fb9190611c36565b60405180910390f35b34801561031057600080fd5b5061032b60048036038101906103269190611b32565b610dce565b6040516103389190611ba0565b60405180910390f35b61035b60048036038101906103569190611ca4565b610e7a565b005b34801561036957600080fd5b50610384600480360381019061037f9190611ca4565b610f34565b6040516103919190611c36565b60405180910390f35b3480156103a657600080fd5b506103af610fec565b005b3480156103bd57600080fd5b506103c6611000565b6040516103d39190611ba0565b60405180910390f35b3480156103e857600080fd5b506103f161102a565b6040516103fe9190611ada565b60405180910390f35b34801561041357600080fd5b5061042e60048036038101906104299190611cfd565b6110b8565b005b34801561043c57600080fd5b5061045760048036038101906104529190611da2565b6111b5565b005b34801561046557600080fd5b50610480600480360381019061047b9190611b32565b611302565b60405161048d9190611ada565b60405180910390f35b3480156104a257600080fd5b506104bd60048036038101906104b89190611e2a565b611396565b6040516104ca9190611a26565b60405180910390f35b3480156104df57600080fd5b506104e86113c5565b6040516104f59190611ada565b60405180910390f35b34801561050a57600080fd5b5061052560048036038101906105209190611ca4565b611453565b005b60006301ffc9a760e01b827bffffffffffffffffffffffffffffffffffffffffffffffffffffffff1916148061058257506380ac58cd60e01b827bffffffffffffffffffffffffffffffffffffffffffffffffffffffff1916145b806105b25750635b5e139f60e01b827bffffffffffffffffffffffffffffffffffffffffffffffffffffffff1916145b9050919050565b600080546105c690611e99565b80601f01602080910402602001604051908101604052809291908181526020018280546105f290611e99565b801561063f5780601f106106145761010080835404028352916020019161063f565b820191906000526020600020905b81548152906001019060200180831161062257829003601f168201915b505050505081565b60046020528060005260406000206000915054906101000a900473ffffffffffffffffffffffffffffffffffffffff1681565b60006002600083815260200190815260200160002060009054906101000a900473ffffffffffffffffffffffffffffffffffffffff1690508073ffffffffffffffffffffffffffffffffffffffff163373ffffffffffffffffffffffffffffffffffffffff1614806107725750600560008273ffffffffffffffffffffffffffffffffffffffff1673ffffffffffffffffffffffffffffffffffffffff16815260200190815260200160002060003373ffffffffffffffffffffffffffffffffffffffff1673ffffffffffffffffffffffffffffffffffffffff16815260200190815260200160002060009054906101000a900460ff165b6107b1576040517f08c379a00000000000000000000000000000000000000000000000000000000081526004016107a890611f17565b60405180910390fd5b826004600084815260200190815260200160002060006101000a81548173ffffffffffffffffffffffffffffffffffffffff021916908373ffffffffffffffffffffffffffffffffffffffff160217905550818373ffffffffffffffffffffffffffffffffffffffff168273ffffffffffffffffffffffffffffffffffffffff167f8c5be1e5ebec7d5bd14f71427d1e84f3dd0314c0f7b2291e5b200ac8c7c3b92560405160405180910390a4505050565b60075481565b6002600082815260200190815260200160002060009054906101000a900473ffffffffffffffffffffffffffffffffffffffff1673ffffffffffffffffffffffffffffffffffffffff168373ffffffffffffffffffffffffffffffffffffffff161461090a576040517f08c379a000000000000000000000000000000000000000000000000000000000815260040161090190611f83565b60405180910390fd5b600073ffffffffffffffffffffffffffffffffffffffff168273ffffffffffffffffffffffffffffffffffffffff16141561097a576040517f08c379a000000000000000000000000000000000000000000000000000000000815260040161097190611fef565b60405180910390fd5b8273ffffffffffffffffffffffffffffffffffffffff163373ffffffffffffffffffffffffffffffffffffffff161480610a3a5750600560008473ffffffffffffffffffffffffffffffffffffffff1673ffffffffffffffffffffffffffffffffffffffff16815260200190815260200160002060003373ffffffffffffffffffffffffffffffffffffffff1673ffffffffffffffffffffffffffffffffffffffff16815260200190815260200160002060009054906101000a900460ff165b80610aa357506004600082815260200190815260200160002060009054906101000a900473ffffffffffffffffffffffffffffffffffffffff1673ffffffffffffffffffffffffffffffffffffffff163373ffffffffffffffffffffffffffffffffffffffff16145b610ae2576040517f08c379a0000000000000000000000000000000000000000000000000000000008152600401610ad990611f17565b60405180910390fd5b600360008473ffffffffffffffffffffffffffffffffffffffff1673ffffffffffffffffffffffffffffffffffffffff1681526020019081526020016000206000815480929190600190039190505550600360008373ffffffffffffffffffffffffffffffffffffffff1673ffffffffffffffffffffffffffffffffffffffff16815260200190815260200160002060008154809291906001019190505550816002600083815260200190815260200160002060006101000a81548173ffffffffffffffffffffffffffffffffffffffff021916908373ffffffffffffffffffffffffffffffffffffffff1602179055506004600082815260200190815260200160002060006101000a81549073ffffffffffffffffffffffffffffffffffffffff0219169055808273ffffffffffffffffffffffffffffffffffffffff168473ffffffffffffffffffffffffffffffffffffffff167fddf252ad1be2c89b69c2b068fc378daa952ba7f163c4a11628f55a4df523b3ef60405160405180910390a4505050565b61271081565b610c7a838383610869565b60008273ffffffffffffffffffffffffffffffffffffffff163b1480610d72575063150b7a0260e01b7bffffffffffffffffffffffffffffffffffffffffffffffffffffffff19168273ffffffffffffffffffffffffffffffffffffffff1663150b7a023386856040518463ffffffff1660e01b8152600401610cff93929190612046565b602060405180830381600087803b158015610d1957600080fd5b505af1158015610d2d573d6000803e3d6000fd5b505050506040513d601f19601f82011682018060405250810190610d5191906120a5565b7bffffffffffffffffffffffffffffffffffffffffffffffffffffffff1916145b610db1576040517f08c379a0000000000000000000000000000000000000000000000000000000008152600401610da89061211e565b60405180910390fd5b505050565b610dbe6114d7565b8060078190555050565b60085481565b60008073ffffffffffffffffffffffffffffffffffffffff166002600084815260200190815260200160002060009054906101000a900473ffffffffffffffffffffffffffffffffffffffff1691508173ffffffffffffffffffffffffffffffffffffffff161415610e75576040517f08c379a0000000000000000000000000000000000000000000000000000000008152600401610e6c9061218a565b60405180910390fd5b919050565b3460075414610ebe576040517f08c379a0000000000000000000000000000000000000000000000000000000008152600401610eb5906121f6565b60405180910390fd5b6127106001600854610ed09190612245565b1115610f11576040517f08c379a0000000000000000000000000000000000000000000000000000000008152600401610f08906122e7565b60405180910390fd5b610f318160086000815480929190610f2890612307565b91905055611555565b50565b60008073ffffffffffffffffffffffffffffffffffffffff168273ffffffffffffffffffffffffffffffffffffffff161415610fa5576040517f08c379a0000000000000000000000000000000000000000000000000000000008152600401610f9c9061239c565b60405180910390fd5b600360008373ffffffffffffffffffffffffffffffffffffffff1673ffffffffffffffffffffffffffffffffffffffff168152602001908152602001600020549050919050565b610ff46114d7565b610ffe600061169b565b565b6000600660009054906101000a900473ffffffffffffffffffffffffffffffffffffffff16905090565b6001805461103790611e99565b80601f016020809104026020016040519081016040528092919081815260200182805461106390611e99565b80156110b05780601f10611085576101008083540402835291602001916110b0565b820191906000526020600020905b81548152906001019060200180831161109357829003601f168201915b505050505081565b80600560003373ffffffffffffffffffffffffffffffffffffffff1673ffffffffffffffffffffffffffffffffffffffff16815260200190815260200160002060008473ffffffffffffffffffffffffffffffffffffffff1673ffffffffffffffffffffffffffffffffffffffff16815260200190815260200160002060006101000a81548160ff0219169083151502179055508173ffffffffffffffffffffffffffffffffffffffff163373ffffffffffffffffffffffffffffffffffffffff167f17307eab39ab6107e8899845ad3d59bd9653f200f220920489ca2b5937696c31836040516111a99190611a26565b60405180910390a35050565b6111c0858585610869565b60008473ffffffffffffffffffffffffffffffffffffffff163b14806112bc575063150b7a0260e01b7bffffffffffffffffffffffffffffffffffffffffffffffffffffffff19168473ffffffffffffffffffffffffffffffffffffffff1663150b7a0233888787876040518663ffffffff1660e01b81526004016112499594939291906123f8565b602060405180830381600087803b15801561126357600080fd5b505af1158015611277573d6000803e3d6000fd5b505050506040513d601f19601f8201168201806040525081019061129b91906120a5565b7bffffffffffffffffffffffffffffffffffffffffffffffffffffffff1916145b6112fb576040517f08c379a00000000000000000000000000000000000000000000000000000000081526004016112f29061211e565b60405180910390fd5b5050505050565b60606009805461131190611e99565b80601f016020809104026020016040519081016040528092919081815260200182805461133d90611e99565b801561138a5780601f1061135f5761010080835404028352916020019161138a565b820191906000526020600020905b81548152906001019060200180831161136d57829003601f168201915b50505050509050919050565b60056020528160005260406000206020528060005260406000206000915091509054906101000a900460ff1681565b600980546113d290611e99565b80601f01602080910402602001604051908101604052809291908181526020018280546113fe90611e99565b801561144b5780601f106114205761010080835404028352916020019161144b565b820191906000526020600020905b81548152906001019060200180831161142e57829003601f168201915b505050505081565b61145b6114d7565b600073ffffffffffffffffffffffffffffffffffffffff168173ffffffffffffffffffffffffffffffffffffffff1614156114cb576040517f08c379a00000000000000000000000000000000000000000000000000000000081526004016114c2906124b8565b60405180910390fd5b6114d48161169b565b50565b6114df611761565b73ffffffffffffffffffffffffffffffffffffffff166114fd611000565b73ffffffffffffffffffffffffffffffffffffffff1614611553576040517f08c379a000000000000000000000000000000000000000000000000000000000815260040161154a90612524565b60405180910390fd5b565b61155f8282611769565b60008273ffffffffffffffffffffffffffffffffffffffff163b1480611658575063150b7a0260e01b7bffffffffffffffffffffffffffffffffffffffffffffffffffffffff19168273ffffffffffffffffffffffffffffffffffffffff1663150b7a02336000856040518463ffffffff1660e01b81526004016115e593929190612046565b602060405180830381600087803b1580156115ff57600080fd5b505af1158015611613573d6000803e3d6000fd5b505050506040513d601f19601f8201168201806040525081019061163791906120a5565b7bffffffffffffffffffffffffffffffffffffffffffffffffffffffff1916145b611697576040517f08c379a000000000000000000000000000000000000000000000000000000000815260040161168e9061211e565b60405180910390fd5b5050565b6000600660009054906101000a900473ffffffffffffffffffffffffffffffffffffffff16905081600660006101000a81548173ffffffffffffffffffffffffffffffffffffffff021916908373ffffffffffffffffffffffffffffffffffffffff1602179055508173ffffffffffffffffffffffffffffffffffffffff168173ffffffffffffffffffffffffffffffffffffffff167f8be0079c531659141344cd1fd0a4f28419497f9722a3daafe3b4186f6b6457e060405160405180910390a35050565b600033905090565b600073ffffffffffffffffffffffffffffffffffffffff168273ffffffffffffffffffffffffffffffffffffffff1614156117d9576040517f08c379a00000000000000000000000000000000000000000000000000000000081526004016117d090611fef565b60405180910390fd5b600073ffffffffffffffffffffffffffffffffffffffff166002600083815260200190815260200160002060009054906101000a900473ffffffffffffffffffffffffffffffffffffffff1673ffffffffffffffffffffffffffffffffffffffff161461187b576040517f08c379a000000000000000000000000000000000000000000000000000000000815260040161187290612590565b60405180910390fd5b600360008373ffffffffffffffffffffffffffffffffffffffff1673ffffffffffffffffffffffffffffffffffffffff16815260200190815260200160002060008154809291906001019190505550816002600083815260200190815260200160002060006101000a81548173ffffffffffffffffffffffffffffffffffffffff021916908373ffffffffffffffffffffffffffffffffffffffff160217905550808273ffffffffffffffffffffffffffffffffffffffff16600073ffffffffffffffffffffffffffffffffffffffff167fddf252ad1be2c89b69c2b068fc378daa952ba7f163c4a11628f55a4df523b3ef60405160405180910390a45050565b600080fd5b600080fd5b60007fffffffff0000000000000000000000000000000000000000000000000000000082169050919050565b6119bb81611986565b81146119c657600080fd5b50565b6000813590506119d8816119b2565b92915050565b6000602082840312156119f4576119f361197c565b5b6000611a02848285016119c9565b91505092915050565b60008115159050919050565b611a2081611a0b565b82525050565b6000602082019050611a3b6000830184611a17565b92915050565b600081519050919050565b600082825260208201905092915050565b60005b83811015611a7b578082015181840152602081019050611a60565b83811115611a8a576000848401525b50505050565b6000601f19601f8301169050919050565b6000611aac82611a41565b611ab68185611a4c565b9350611ac6818560208601611a5d565b611acf81611a90565b840191505092915050565b60006020820190508181036000830152611af48184611aa1565b905092915050565b6000819050919050565b611b0f81611afc565b8114611b1a57600080fd5b50565b600081359050611b2c81611b06565b92915050565b600060208284031215611b4857611b4761197c565b5b6000611b5684828501611b1d565b91505092915050565b600073ffffffffffffffffffffffffffffffffffffffff82169050919050565b6000611b8a82611b5f565b9050919050565b611b9a81611b7f565b82525050565b6000602082019050611bb56000830184611b91565b92915050565b611bc481611b7f565b8114611bcf57600080fd5b50565b600081359050611be181611bbb565b92915050565b60008060408385031215611bfe57611bfd61197c565b5b6000611c0c85828601611bd2565b9250506020611c1d85828601611b1d565b9150509250929050565b611c3081611afc565b82525050565b6000602082019050611c4b6000830184611c27565b92915050565b600080600060608486031215611c6a57611c6961197c565b5b6000611c7886828701611bd2565b9350506020611c8986828701611bd2565b9250506040611c9a86828701611b1d565b9150509250925092565b600060208284031215611cba57611cb961197c565b5b6000611cc884828501611bd2565b91505092915050565b611cda81611a0b565b8114611ce557600080fd5b50565b600081359050611cf781611cd1565b92915050565b60008060408385031215611d1457611d1361197c565b5b6000611d2285828601611bd2565b9250506020611d3385828601611ce8565b9150509250929050565b600080fd5b600080fd5b600080fd5b60008083601f840112611d6257611d61611d3d565b5b8235905067ffffffffffffffff811115611d7f57611d7e611d42565b5b602083019150836001820283011115611d9b57611d9a611d47565b5b9250929050565b600080600080600060808688031215611dbe57611dbd61197c565b5b6000611dcc88828901611bd2565b9550506020611ddd88828901611bd2565b9450506040611dee88828901611b1d565b935050606086013567ffffffffffffffff811115611e0f57611e0e611981565b5b611e1b88828901611d4c565b92509250509295509295909350565b60008060408385031215611e4157611e4061197c565b5b6000611e4f85828601611bd2565b9250506020611e6085828601611bd2565b9150509250929050565b7f4e487b7100000000000000000000000000000000000000000000000000000000600052602260045260246000fd5b60006002820490506001821680611eb157607f821691505b60208210811415611ec557611ec4611e6a565b5b50919050565b7f4e4f545f415554484f52495a4544000000000000000000000000000000000000600082015250565b6000611f01600e83611a4c565b9150611f0c82611ecb565b602082019050919050565b60006020820190508181036000830152611f3081611ef4565b9050919050565b7f57524f4e475f46524f4d00000000000000000000000000000000000000000000600082015250565b6000611f6d600a83611a4c565b9150611f7882611f37565b602082019050919050565b60006020820190508181036000830152611f9c81611f60565b9050919050565b7f494e56414c49445f524543495049454e54000000000000000000000000000000600082015250565b6000611fd9601183611a4c565b9150611fe482611fa3565b602082019050919050565b6000602082019050818103600083015261200881611fcc565b9050919050565b600082825260208201905092915050565b50565b600061203060008361200f565b915061203b82612020565b600082019050919050565b600060808201905061205b6000830186611b91565b6120686020830185611b91565b6120756040830184611c27565b818103606083015261208681612023565b9050949350505050565b60008151905061209f816119b2565b92915050565b6000602082840312156120bb576120ba61197c565b5b60006120c984828501612090565b91505092915050565b7f554e534146455f524543495049454e5400000000000000000000000000000000600082015250565b6000612108601083611a4c565b9150612113826120d2565b602082019050919050565b60006020820190508181036000830152612137816120fb565b9050919050565b7f4e4f545f4d494e54454400000000000000000000000000000000000000000000600082015250565b6000612174600a83611a4c565b915061217f8261213e565b602082019050919050565b600060208201905081810360008301526121a381612167565b9050919050565b7f496e636f7272656374204554482076616c75652073656e740000000000000000600082015250565b60006121e0601883611a4c565b91506121eb826121aa565b602082019050919050565b6000602082019050818103600083015261220f816121d3565b9050919050565b7f4e487b7100000000000000000000000000000000000000000000000000000000600052601160045260246000fd5b600061225082611afc565b915061225b83611afc565b9250827fffffffffffffffffffffffffffffffffffffffffffffffffffffffffffffffff038211156122905761228f612216565b5b828201905092915050565b7f4e6f206d6f7265206c6566740000000000000000000000000000000000000000600082015250565b60006122d1600c83611a4c565b91506122dc8261229b565b602082019050919050565b60006020820190508181036000830152612300816122c4565b9050919050565b600061231282611afc565b91507fffffffffffffffffffffffffffffffffffffffffffffffffffffffffffffffff82141561234557612344612216565b5b600182019050919050565b7f5a45524f5f414444524553530000000000000000000000000000000000000000600082015250565b6000612386600c83611a4c565b915061239182612350565b602082019050919050565b600060208201905081810360008301526123b581612379565b9050919050565b82818337600083830152505050565b60006123d7838561200f565b93506123e48385846123bc565b6123ed83611a90565b840190509392505050565b600060808201905061240d6000830188611b91565b61241a6020830187611b91565b6124276040830186611c27565b818103606083015261243a8184866123cb565b90509695505050505050565b7f4f776e61626c653a206e6577206f776e657220697320746865207a65726f206160008201527f6464726573730000000000000000000000000000000000000000000000000000602082015250565b60006124a2602683611a4c565b91506124ad82612446565b604082019050919050565b600060208201905081810360008301526124d181612495565b9050919050565b7f4f776e61626c653a2063616c6c6572206973206e6f7420746865206f776e6572600082015250565b600061250e602083611a4c565b9150612519826124d8565b602082019050919050565b6000602082019050818103600083015261253d81612501565b9050919050565b7f414c52454144595f4d494e544544000000000000000000000000000000000000600082015250565b600061257a600e83611a4c565b915061258582612544565b602082019050919050565b600060208201905081810360008301526125a98161256d565b905091905056fea26469706673582212201d5b7bf07649f5c7797d225b2e9d795044937e7fd8de8ad5641488d16bdf424e64736f6c6343000809003368747470733a2f2f6e667473746f726167652e6c696e6b2f697066732f6261666b7265696336787567346961366e326f676235623576666d6a6d72766a7568797069693663656b3475776166377769346d67797570736534",
  "linkReferences": {},
  "deployedLinkReferences": {}
}